{
  "_format": "hh-sol-artifact-1",
  "contractName": "NFTRecord",
  "sourceName": "contracts/NFTRecord.sol",
  "abi": [
    {
      "inputs": [
        {
          "internalType": "address",
          "name": "initialOwner",
          "type": "address"
        },
        {
          "internalType": "address",
          "name": "tokenAddress",
          "type": "address"
        }
      ],
      "stateMutability": "nonpayable",
      "type": "constructor"
    },
    {
      "inputs": [
        {
          "internalType": "address",
          "name": "sender",
          "type": "address"
        },
        {
          "internalType": "uint256",
          "name": "tokenId",
          "type": "uint256"
        },
        {
          "internalType": "address",
          "name": "owner",
          "type": "address"
        }
      ],
      "name": "ERC721IncorrectOwner",
      "type": "error"
    },
    {
      "inputs": [
        {
          "internalType": "address",
          "name": "operator",
          "type": "address"
        },
        {
          "internalType": "uint256",
          "name": "tokenId",
          "type": "uint256"
        }
      ],
      "name": "ERC721InsufficientApproval",
      "type": "error"
    },
    {
      "inputs": [
        {
          "internalType": "address",
          "name": "approver",
          "type": "address"
        }
      ],
      "name": "ERC721InvalidApprover",
      "type": "error"
    },
    {
      "inputs": [
        {
          "internalType": "address",
          "name": "operator",
          "type": "address"
        }
      ],
      "name": "ERC721InvalidOperator",
      "type": "error"
    },
    {
      "inputs": [
        {
          "internalType": "address",
          "name": "owner",
          "type": "address"
        }
      ],
      "name": "ERC721InvalidOwner",
      "type": "error"
    },
    {
      "inputs": [
        {
          "internalType": "address",
          "name": "receiver",
          "type": "address"
        }
      ],
      "name": "ERC721InvalidReceiver",
      "type": "error"
    },
    {
      "inputs": [
        {
          "internalType": "address",
          "name": "sender",
          "type": "address"
        }
      ],
      "name": "ERC721InvalidSender",
      "type": "error"
    },
    {
      "inputs": [
        {
          "internalType": "uint256",
          "name": "tokenId",
          "type": "uint256"
        }
      ],
      "name": "ERC721NonexistentToken",
      "type": "error"
    },
    {
      "inputs": [
        {
          "internalType": "address",
          "name": "owner",
          "type": "address"
        }
      ],
      "name": "OwnableInvalidOwner",
      "type": "error"
    },
    {
      "inputs": [
        {
          "internalType": "address",
          "name": "account",
          "type": "address"
        }
      ],
      "name": "OwnableUnauthorizedAccount",
      "type": "error"
    },
    {
      "anonymous": false,
      "inputs": [
        {
          "indexed": true,
          "internalType": "address",
          "name": "owner",
          "type": "address"
        },
        {
          "indexed": true,
          "internalType": "address",
          "name": "approved",
          "type": "address"
        },
        {
          "indexed": true,
          "internalType": "uint256",
          "name": "tokenId",
          "type": "uint256"
        }
      ],
      "name": "Approval",
      "type": "event"
    },
    {
      "anonymous": false,
      "inputs": [
        {
          "indexed": true,
          "internalType": "address",
          "name": "owner",
          "type": "address"
        },
        {
          "indexed": true,
          "internalType": "address",
          "name": "operator",
          "type": "address"
        },
        {
          "indexed": false,
          "internalType": "bool",
          "name": "approved",
          "type": "bool"
        }
      ],
      "name": "ApprovalForAll",
      "type": "event"
    },
    {
      "anonymous": false,
      "inputs": [
        {
          "indexed": false,
          "internalType": "uint256",
          "name": "_fromTokenId",
          "type": "uint256"
        },
        {
          "indexed": false,
          "internalType": "uint256",
          "name": "_toTokenId",
          "type": "uint256"
        }
      ],
      "name": "BatchMetadataUpdate",
      "type": "event"
    },
    {
      "anonymous": false,
      "inputs": [
        {
          "indexed": false,
          "internalType": "uint256",
          "name": "_tokenId",
          "type": "uint256"
        }
      ],
      "name": "MetadataUpdate",
      "type": "event"
    },
    {
      "anonymous": false,
      "inputs": [
        {
          "indexed": true,
          "internalType": "address",
          "name": "previousOwner",
          "type": "address"
        },
        {
          "indexed": true,
          "internalType": "address",
          "name": "newOwner",
          "type": "address"
        }
      ],
      "name": "OwnershipTransferred",
      "type": "event"
    },
    {
      "anonymous": false,
      "inputs": [
        {
          "indexed": true,
          "internalType": "address",
          "name": "from",
          "type": "address"
        },
        {
          "indexed": true,
          "internalType": "address",
          "name": "to",
          "type": "address"
        },
        {
          "indexed": true,
          "internalType": "uint256",
          "name": "tokenId",
          "type": "uint256"
        }
      ],
      "name": "Transfer",
      "type": "event"
    },
    {
      "inputs": [
        {
          "internalType": "address",
          "name": "to",
          "type": "address"
        },
        {
          "internalType": "uint256",
          "name": "tokenId",
          "type": "uint256"
        }
      ],
      "name": "approve",
      "outputs": [],
      "stateMutability": "nonpayable",
      "type": "function"
    },
    {
      "inputs": [
        {
          "internalType": "address",
          "name": "owner",
          "type": "address"
        }
      ],
      "name": "balanceOf",
      "outputs": [
        {
          "internalType": "uint256",
          "name": "",
          "type": "uint256"
        }
      ],
      "stateMutability": "view",
      "type": "function"
    },
    {
      "inputs": [
        {
          "internalType": "uint256",
          "name": "tokenId",
          "type": "uint256"
        }
      ],
      "name": "getApproved",
      "outputs": [
        {
          "internalType": "address",
          "name": "",
          "type": "address"
        }
      ],
      "stateMutability": "view",
      "type": "function"
    },
    {
      "inputs": [],
      "name": "getNextTokenId",
      "outputs": [
        {
          "internalType": "uint256",
          "name": "",
          "type": "uint256"
        }
      ],
      "stateMutability": "view",
      "type": "function"
    },
    {
      "inputs": [
        {
          "internalType": "uint256",
          "name": "tokenId",
          "type": "uint256"
        }
      ],
      "name": "getTokenValue",
      "outputs": [
        {
          "internalType": "uint256",
          "name": "",
          "type": "uint256"
        }
      ],
      "stateMutability": "view",
      "type": "function"
    },
    {
      "inputs": [
        {
          "internalType": "address",
          "name": "owner",
          "type": "address"
        },
        {
          "internalType": "address",
          "name": "operator",
          "type": "address"
        }
      ],
      "name": "isApprovedForAll",
      "outputs": [
        {
          "internalType": "bool",
          "name": "",
          "type": "bool"
        }
      ],
      "stateMutability": "view",
      "type": "function"
    },
    {
      "inputs": [
        {
          "internalType": "address",
          "name": "to",
          "type": "address"
        },
        {
          "internalType": "string",
          "name": "uri",
          "type": "string"
        },
        {
          "internalType": "uint256",
          "name": "tokenAmount",
          "type": "uint256"
        }
      ],
      "name": "mint",
      "outputs": [],
      "stateMutability": "nonpayable",
      "type": "function"
    },
    {
      "inputs": [],
      "name": "name",
      "outputs": [
        {
          "internalType": "string",
          "name": "",
          "type": "string"
        }
      ],
      "stateMutability": "view",
      "type": "function"
    },
    {
      "inputs": [],
      "name": "owner",
      "outputs": [
        {
          "internalType": "address",
          "name": "",
          "type": "address"
        }
      ],
      "stateMutability": "view",
      "type": "function"
    },
    {
      "inputs": [
        {
          "internalType": "uint256",
          "name": "tokenId",
          "type": "uint256"
        }
      ],
      "name": "ownerOf",
      "outputs": [
        {
          "internalType": "address",
          "name": "",
          "type": "address"
        }
      ],
      "stateMutability": "view",
      "type": "function"
    },
    {
      "inputs": [],
      "name": "renounceOwnership",
      "outputs": [],
      "stateMutability": "nonpayable",
      "type": "function"
    },
    {
      "inputs": [
        {
          "internalType": "address",
          "name": "from",
          "type": "address"
        },
        {
          "internalType": "address",
          "name": "to",
          "type": "address"
        },
        {
          "internalType": "uint256",
          "name": "tokenId",
          "type": "uint256"
        }
      ],
      "name": "safeTransferFrom",
      "outputs": [],
      "stateMutability": "nonpayable",
      "type": "function"
    },
    {
      "inputs": [
        {
          "internalType": "address",
          "name": "from",
          "type": "address"
        },
        {
          "internalType": "address",
          "name": "to",
          "type": "address"
        },
        {
          "internalType": "uint256",
          "name": "tokenId",
          "type": "uint256"
        },
        {
          "internalType": "bytes",
          "name": "data",
          "type": "bytes"
        }
      ],
      "name": "safeTransferFrom",
      "outputs": [],
      "stateMutability": "nonpayable",
      "type": "function"
    },
    {
      "inputs": [
        {
          "internalType": "address",
          "name": "operator",
          "type": "address"
        },
        {
          "internalType": "bool",
          "name": "approved",
          "type": "bool"
        }
      ],
      "name": "setApprovalForAll",
      "outputs": [],
      "stateMutability": "nonpayable",
      "type": "function"
    },
    {
      "inputs": [
        {
          "internalType": "bytes4",
          "name": "interfaceId",
          "type": "bytes4"
        }
      ],
      "name": "supportsInterface",
      "outputs": [
        {
          "internalType": "bool",
          "name": "",
          "type": "bool"
        }
      ],
      "stateMutability": "view",
      "type": "function"
    },
    {
      "inputs": [],
      "name": "symbol",
      "outputs": [
        {
          "internalType": "string",
          "name": "",
          "type": "string"
        }
      ],
      "stateMutability": "view",
      "type": "function"
    },
    {
      "inputs": [
        {
          "internalType": "uint256",
          "name": "tokenId",
          "type": "uint256"
        }
      ],
      "name": "tokenURI",
      "outputs": [
        {
          "internalType": "string",
          "name": "",
          "type": "string"
        }
      ],
      "stateMutability": "view",
      "type": "function"
    },
    {
      "inputs": [],
      "name": "totalAssignedValue",
      "outputs": [
        {
          "internalType": "uint256",
          "name": "",
          "type": "uint256"
        }
      ],
      "stateMutability": "view",
      "type": "function"
    },
    {
      "inputs": [
        {
          "internalType": "address",
          "name": "from",
          "type": "address"
        },
        {
          "internalType": "address",
          "name": "to",
          "type": "address"
        },
        {
          "internalType": "uint256",
          "name": "tokenId",
          "type": "uint256"
        }
      ],
      "name": "transferFrom",
      "outputs": [],
      "stateMutability": "nonpayable",
      "type": "function"
    },
    {
      "inputs": [
        {
          "internalType": "address",
          "name": "newOwner",
          "type": "address"
        }
      ],
      "name": "transferOwnership",
      "outputs": [],
      "stateMutability": "nonpayable",
      "type": "function"
    }
  ],
  "bytecode": "0x608060405234801561001057600080fd5b506040516131d83803806131d8833981810160405281019061003291906102b4565b816040518060400160405280600981526020017f4e46545265636f726400000000000000000000000000000000000000000000008152506040518060400160405280600481526020017f4e4654520000000000000000000000000000000000000000000000000000000081525081600090816100ae9190610544565b5080600190816100be9190610544565b505050600073ffffffffffffffffffffffffffffffffffffffff168173ffffffffffffffffffffffffffffffffffffffff16036101335760006040517f1e4fbdf700000000000000000000000000000000000000000000000000000000815260040161012a9190610625565b60405180910390fd5b6101428161018b60201b60201c565b5080600960006101000a81548173ffffffffffffffffffffffffffffffffffffffff021916908373ffffffffffffffffffffffffffffffffffffffff1602179055505050610640565b6000600760009054906101000a900473ffffffffffffffffffffffffffffffffffffffff16905081600760006101000a81548173ffffffffffffffffffffffffffffffffffffffff021916908373ffffffffffffffffffffffffffffffffffffffff1602179055508173ffffffffffffffffffffffffffffffffffffffff168173ffffffffffffffffffffffffffffffffffffffff167f8be0079c531659141344cd1fd0a4f28419497f9722a3daafe3b4186f6b6457e060405160405180910390a35050565b600080fd5b600073ffffffffffffffffffffffffffffffffffffffff82169050919050565b600061028182610256565b9050919050565b61029181610276565b811461029c57600080fd5b50565b6000815190506102ae81610288565b92915050565b600080604083850312156102cb576102ca610251565b5b60006102d98582860161029f565b92505060206102ea8582860161029f565b9150509250929050565b600081519050919050565b7f4e487b7100000000000000000000000000000000000000000000000000000000600052604160045260246000fd5b7f4e487b7100000000000000000000000000000000000000000000000000000000600052602260045260246000fd5b6000600282049050600182168061037557607f821691505b6020821081036103885761038761032e565b5b50919050565b60008190508160005260206000209050919050565b60006020601f8301049050919050565b600082821b905092915050565b6000600883026103f07fffffffffffffffffffffffffffffffffffffffffffffffffffffffffffffffff826103b3565b6103fa86836103b3565b95508019841693508086168417925050509392505050565b6000819050919050565b6000819050919050565b600061044161043c61043784610412565b61041c565b610412565b9050919050565b6000819050919050565b61045b83610426565b61046f61046782610448565b8484546103c0565b825550505050565b600090565b610484610477565b61048f818484610452565b505050565b5b818110156104b3576104a860008261047c565b600181019050610495565b5050565b601f8211156104f8576104c98161038e565b6104d2846103a3565b810160208510156104e1578190505b6104f56104ed856103a3565b830182610494565b50505b505050565b600082821c905092915050565b600061051b600019846008026104fd565b1980831691505092915050565b6000610534838361050a565b9150826002028217905092915050565b61054d826102f4565b67ffffffffffffffff811115610566576105656102ff565b5b610570825461035d565b61057b8282856104b7565b600060209050601f8311600181146105ae576000841561059c578287015190505b6105a68582610528565b86555061060e565b601f1984166105bc8661038e565b60005b828110156105e4578489015182556001820191506020850194506020810190506105bf565b8683101561060157848901516105fd601f89168261050a565b8355505b6001600288020188555050505b505050505050565b61061f81610276565b82525050565b600060208201905061063a6000830184610616565b92915050565b612b898061064f6000396000f3fe608060405234801561001057600080fd5b506004361061012c5760003560e01c80638da5cb5b116100ad578063c87b56dd11610071578063c87b56dd1461031b578063caa0f92a1461034b578063d10424c714610369578063e985e9c514610399578063f2fde38b146103c95761012c565b80638da5cb5b1461028b57806395d89b41146102a9578063a22cb465146102c7578063b88d4fde146102e3578063ba7aef43146102ff5761012c565b806342842e0e116100f457806342842e0e146101e75780635c73f33e146102035780636352211e1461022157806370a0823114610251578063715018a6146102815761012c565b806301ffc9a71461013157806306fdde0314610161578063081812fc1461017f578063095ea7b3146101af57806323b872dd146101cb575b600080fd5b61014b60048036038101906101469190611d9b565b6103e5565b6040516101589190611de3565b60405180910390f35b610169610446565b6040516101769190611e8e565b60405180910390f35b61019960048036038101906101949190611ee6565b6104d8565b6040516101a69190611f54565b60405180910390f35b6101c960048036038101906101c49190611f9b565b6104f4565b005b6101e560048036038101906101e09190611fdb565b61050a565b005b61020160048036038101906101fc9190611fdb565b61060c565b005b61020b61062c565b604051610218919061203d565b60405180910390f35b61023b60048036038101906102369190611ee6565b610632565b6040516102489190611f54565b60405180910390f35b61026b60048036038101906102669190612058565b610644565b604051610278919061203d565b60405180910390f35b6102896106fe565b005b610293610712565b6040516102a09190611f54565b60405180910390f35b6102b161073c565b6040516102be9190611e8e565b60405180910390f35b6102e160048036038101906102dc91906120b1565b6107ce565b005b6102fd60048036038101906102f89190612226565b6107e4565b005b6103196004803603810190610314919061234a565b610809565b005b61033560048036038101906103309190611ee6565b610a36565b6040516103429190611e8e565b60405180910390f35b610353610b49565b604051610360919061203d565b60405180910390f35b610383600480360381019061037e9190611ee6565b610b53565b604051610390919061203d565b60405180910390f35b6103b360048036038101906103ae91906123b9565b610be6565b6040516103c09190611de3565b60405180910390f35b6103e360048036038101906103de9190612058565b610c7a565b005b6000634906490660e01b7bffffffffffffffffffffffffffffffffffffffffffffffffffffffff1916827bffffffffffffffffffffffffffffffffffffffffffffffffffffffff1916148061043f575061043e82610d00565b5b9050919050565b60606000805461045590612428565b80601f016020809104026020016040519081016040528092919081815260200182805461048190612428565b80156104ce5780601f106104a3576101008083540402835291602001916104ce565b820191906000526020600020905b8154815290600101906020018083116104b157829003601f168201915b5050505050905090565b60006104e382610de2565b506104ed82610e6a565b9050919050565b6105068282610501610ea7565b610eaf565b5050565b600073ffffffffffffffffffffffffffffffffffffffff168273ffffffffffffffffffffffffffffffffffffffff160361057c5760006040517f64a0ae920000000000000000000000000000000000000000000000000000000081526004016105739190611f54565b60405180910390fd5b6000610590838361058b610ea7565b610ec1565b90508373ffffffffffffffffffffffffffffffffffffffff168173ffffffffffffffffffffffffffffffffffffffff1614610606578382826040517f64283d7b0000000000000000000000000000000000000000000000000000000081526004016105fd93929190612459565b60405180910390fd5b50505050565b610627838383604051806020016040528060008152506107e4565b505050565b600b5481565b600061063d82610de2565b9050919050565b60008073ffffffffffffffffffffffffffffffffffffffff168273ffffffffffffffffffffffffffffffffffffffff16036106b75760006040517f89c62b640000000000000000000000000000000000000000000000000000000081526004016106ae9190611f54565b60405180910390fd5b600360008373ffffffffffffffffffffffffffffffffffffffff1673ffffffffffffffffffffffffffffffffffffffff168152602001908152602001600020549050919050565b6107066110db565b6107106000611162565b565b6000600760009054906101000a900473ffffffffffffffffffffffffffffffffffffffff16905090565b60606001805461074b90612428565b80601f016020809104026020016040519081016040528092919081815260200182805461077790612428565b80156107c45780601f10610799576101008083540402835291602001916107c4565b820191906000526020600020905b8154815290600101906020018083116107a757829003601f168201915b5050505050905090565b6107e06107d9610ea7565b8383611228565b5050565b6107ef84848461050a565b6108036107fa610ea7565b85858585611397565b50505050565b6108116110db565b80600960009054906101000a900473ffffffffffffffffffffffffffffffffffffffff1673ffffffffffffffffffffffffffffffffffffffff166370a08231336040518263ffffffff1660e01b815260040161086d9190611f54565b602060405180830381865afa15801561088a573d6000803e3d6000fd5b505050506040513d601f19601f820116820180604052508101906108ae91906124a5565b10156108ef576040517f08c379a00000000000000000000000000000000000000000000000000000000081526004016108e69061251e565b60405180910390fd5b600960009054906101000a900473ffffffffffffffffffffffffffffffffffffffff1673ffffffffffffffffffffffffffffffffffffffff166323b872dd3330846040518463ffffffff1660e01b815260040161094e9392919061253e565b6020604051808303816000875af115801561096d573d6000803e3d6000fd5b505050506040513d601f19601f82011682018060405250810190610991919061258a565b6109d0576040517f08c379a00000000000000000000000000000000000000000000000000000000081526004016109c790612603565b60405180910390fd5b6000600860008154809291906109e590612652565b9190505590506109f58482611548565b6109ff8184611641565b81600a60008381526020019081526020016000208190555081600b6000828254610a29919061269a565b9250508190555050505050565b6060610a4182610de2565b506000600660008481526020019081526020016000208054610a6290612428565b80601f0160208091040260200160405190810160405280929190818152602001828054610a8e90612428565b8015610adb5780601f10610ab057610100808354040283529160200191610adb565b820191906000526020600020905b815481529060010190602001808311610abe57829003601f168201915b505050505090506000610aec61169d565b90506000815103610b01578192505050610b44565b600082511115610b36578082604051602001610b1e92919061270a565b60405160208183030381529060405292505050610b44565b610b3f846116b4565b925050505b919050565b6000600854905090565b60008073ffffffffffffffffffffffffffffffffffffffff16610b7583610632565b73ffffffffffffffffffffffffffffffffffffffff1603610bcb576040517f08c379a0000000000000000000000000000000000000000000000000000000008152600401610bc29061277a565b60405180910390fd5b600a6000838152602001908152602001600020549050919050565b6000600560008473ffffffffffffffffffffffffffffffffffffffff1673ffffffffffffffffffffffffffffffffffffffff16815260200190815260200160002060008373ffffffffffffffffffffffffffffffffffffffff1673ffffffffffffffffffffffffffffffffffffffff16815260200190815260200160002060009054906101000a900460ff16905092915050565b610c826110db565b600073ffffffffffffffffffffffffffffffffffffffff168173ffffffffffffffffffffffffffffffffffffffff1603610cf45760006040517f1e4fbdf7000000000000000000000000000000000000000000000000000000008152600401610ceb9190611f54565b60405180910390fd5b610cfd81611162565b50565b60007f80ac58cd000000000000000000000000000000000000000000000000000000007bffffffffffffffffffffffffffffffffffffffffffffffffffffffff1916827bffffffffffffffffffffffffffffffffffffffffffffffffffffffff19161480610dcb57507f5b5e139f000000000000000000000000000000000000000000000000000000007bffffffffffffffffffffffffffffffffffffffffffffffffffffffff1916827bffffffffffffffffffffffffffffffffffffffffffffffffffffffff1916145b80610ddb5750610dda8261171d565b5b9050919050565b600080610dee83611787565b9050600073ffffffffffffffffffffffffffffffffffffffff168173ffffffffffffffffffffffffffffffffffffffff1603610e6157826040517f7e273289000000000000000000000000000000000000000000000000000000008152600401610e58919061203d565b60405180910390fd5b80915050919050565b60006004600083815260200190815260200160002060009054906101000a900473ffffffffffffffffffffffffffffffffffffffff169050919050565b600033905090565b610ebc83838360016117c4565b505050565b600080610ecd84611787565b9050600073ffffffffffffffffffffffffffffffffffffffff168373ffffffffffffffffffffffffffffffffffffffff1614610f0f57610f0e818486611989565b5b600073ffffffffffffffffffffffffffffffffffffffff168173ffffffffffffffffffffffffffffffffffffffff1614610fa057610f516000856000806117c4565b6001600360008373ffffffffffffffffffffffffffffffffffffffff1673ffffffffffffffffffffffffffffffffffffffff168152602001908152602001600020600082825403925050819055505b600073ffffffffffffffffffffffffffffffffffffffff168573ffffffffffffffffffffffffffffffffffffffff1614611023576001600360008773ffffffffffffffffffffffffffffffffffffffff1673ffffffffffffffffffffffffffffffffffffffff168152602001908152602001600020600082825401925050819055505b846002600086815260200190815260200160002060006101000a81548173ffffffffffffffffffffffffffffffffffffffff021916908373ffffffffffffffffffffffffffffffffffffffff160217905550838573ffffffffffffffffffffffffffffffffffffffff168273ffffffffffffffffffffffffffffffffffffffff167fddf252ad1be2c89b69c2b068fc378daa952ba7f163c4a11628f55a4df523b3ef60405160405180910390a4809150509392505050565b6110e3610ea7565b73ffffffffffffffffffffffffffffffffffffffff16611101610712565b73ffffffffffffffffffffffffffffffffffffffff161461116057611124610ea7565b6040517f118cdaa70000000000000000000000000000000000000000000000000000000081526004016111579190611f54565b60405180910390fd5b565b6000600760009054906101000a900473ffffffffffffffffffffffffffffffffffffffff16905081600760006101000a81548173ffffffffffffffffffffffffffffffffffffffff021916908373ffffffffffffffffffffffffffffffffffffffff1602179055508173ffffffffffffffffffffffffffffffffffffffff168173ffffffffffffffffffffffffffffffffffffffff167f8be0079c531659141344cd1fd0a4f28419497f9722a3daafe3b4186f6b6457e060405160405180910390a35050565b600073ffffffffffffffffffffffffffffffffffffffff168273ffffffffffffffffffffffffffffffffffffffff160361129957816040517f5b08ba180000000000000000000000000000000000000000000000000000000081526004016112909190611f54565b60405180910390fd5b80600560008573ffffffffffffffffffffffffffffffffffffffff1673ffffffffffffffffffffffffffffffffffffffff16815260200190815260200160002060008473ffffffffffffffffffffffffffffffffffffffff1673ffffffffffffffffffffffffffffffffffffffff16815260200190815260200160002060006101000a81548160ff0219169083151502179055508173ffffffffffffffffffffffffffffffffffffffff168373ffffffffffffffffffffffffffffffffffffffff167f17307eab39ab6107e8899845ad3d59bd9653f200f220920489ca2b5937696c318360405161138a9190611de3565b60405180910390a3505050565b60008373ffffffffffffffffffffffffffffffffffffffff163b1115611541578273ffffffffffffffffffffffffffffffffffffffff1663150b7a02868685856040518563ffffffff1660e01b81526004016113f694939291906127ef565b6020604051808303816000875af192505050801561143257506040513d601f19601f8201168201806040525081019061142f9190612850565b60015b6114b6573d8060008114611462576040519150601f19603f3d011682016040523d82523d6000602084013e611467565b606091505b5060008151036114ae57836040517f64a0ae920000000000000000000000000000000000000000000000000000000081526004016114a59190611f54565b60405180910390fd5b805160208201fd5b63150b7a0260e01b7bffffffffffffffffffffffffffffffffffffffffffffffffffffffff1916817bffffffffffffffffffffffffffffffffffffffffffffffffffffffff19161461153f57836040517f64a0ae920000000000000000000000000000000000000000000000000000000081526004016115369190611f54565b60405180910390fd5b505b5050505050565b600073ffffffffffffffffffffffffffffffffffffffff168273ffffffffffffffffffffffffffffffffffffffff16036115ba5760006040517f64a0ae920000000000000000000000000000000000000000000000000000000081526004016115b19190611f54565b60405180910390fd5b60006115c883836000610ec1565b9050600073ffffffffffffffffffffffffffffffffffffffff168173ffffffffffffffffffffffffffffffffffffffff161461163c5760006040517f73c6ac6e0000000000000000000000000000000000000000000000000000000081526004016116339190611f54565b60405180910390fd5b505050565b806006600084815260200190815260200160002090816116619190612a29565b507ff8e1a15aba9398e019f0b49df1a4fde98ee17ae345cb5f6b5e2c27f5033e8ce782604051611691919061203d565b60405180910390a15050565b606060405180602001604052806000815250905090565b60606116bf82610de2565b5060006116ca61169d565b905060008151116116ea5760405180602001604052806000815250611715565b806116f484611a4d565b60405160200161170592919061270a565b6040516020818303038152906040525b915050919050565b60007f01ffc9a7000000000000000000000000000000000000000000000000000000007bffffffffffffffffffffffffffffffffffffffffffffffffffffffff1916827bffffffffffffffffffffffffffffffffffffffffffffffffffffffff1916149050919050565b60006002600083815260200190815260200160002060009054906101000a900473ffffffffffffffffffffffffffffffffffffffff169050919050565b80806117fd5750600073ffffffffffffffffffffffffffffffffffffffff168273ffffffffffffffffffffffffffffffffffffffff1614155b1561193157600061180d84610de2565b9050600073ffffffffffffffffffffffffffffffffffffffff168373ffffffffffffffffffffffffffffffffffffffff161415801561187857508273ffffffffffffffffffffffffffffffffffffffff168173ffffffffffffffffffffffffffffffffffffffff1614155b801561188b57506118898184610be6565b155b156118cd57826040517fa9fbf51f0000000000000000000000000000000000000000000000000000000081526004016118c49190611f54565b60405180910390fd5b811561192f57838573ffffffffffffffffffffffffffffffffffffffff168273ffffffffffffffffffffffffffffffffffffffff167f8c5be1e5ebec7d5bd14f71427d1e84f3dd0314c0f7b2291e5b200ac8c7c3b92560405160405180910390a45b505b836004600085815260200190815260200160002060006101000a81548173ffffffffffffffffffffffffffffffffffffffff021916908373ffffffffffffffffffffffffffffffffffffffff16021790555050505050565b611994838383611b1b565b611a4857600073ffffffffffffffffffffffffffffffffffffffff168373ffffffffffffffffffffffffffffffffffffffff1603611a0957806040517f7e273289000000000000000000000000000000000000000000000000000000008152600401611a00919061203d565b60405180910390fd5b81816040517f177e802f000000000000000000000000000000000000000000000000000000008152600401611a3f929190612afb565b60405180910390fd5b505050565b606060006001611a5c84611bdc565b01905060008167ffffffffffffffff811115611a7b57611a7a6120fb565b5b6040519080825280601f01601f191660200182016040528015611aad5781602001600182028036833780820191505090505b509050600082602083010190505b600115611b10578080600190039150507f3031323334353637383961626364656600000000000000000000000000000000600a86061a8153600a8581611b0457611b03612b24565b5b04945060008503611abb575b819350505050919050565b60008073ffffffffffffffffffffffffffffffffffffffff168373ffffffffffffffffffffffffffffffffffffffff1614158015611bd357508273ffffffffffffffffffffffffffffffffffffffff168473ffffffffffffffffffffffffffffffffffffffff161480611b945750611b938484610be6565b5b80611bd257508273ffffffffffffffffffffffffffffffffffffffff16611bba83610e6a565b73ffffffffffffffffffffffffffffffffffffffff16145b5b90509392505050565b600080600090507a184f03e93ff9f4daa797ed6e38ed64bf6a1f0100000000000000008310611c3a577a184f03e93ff9f4daa797ed6e38ed64bf6a1f0100000000000000008381611c3057611c2f612b24565b5b0492506040810190505b6d04ee2d6d415b85acef81000000008310611c77576d04ee2d6d415b85acef81000000008381611c6d57611c6c612b24565b5b0492506020810190505b662386f26fc100008310611ca657662386f26fc100008381611c9c57611c9b612b24565b5b0492506010810190505b6305f5e1008310611ccf576305f5e1008381611cc557611cc4612b24565b5b0492506008810190505b6127108310611cf4576127108381611cea57611ce9612b24565b5b0492506004810190505b60648310611d175760648381611d0d57611d0c612b24565b5b0492506002810190505b600a8310611d26576001810190505b80915050919050565b6000604051905090565b600080fd5b600080fd5b60007fffffffff0000000000000000000000000000000000000000000000000000000082169050919050565b611d7881611d43565b8114611d8357600080fd5b50565b600081359050611d9581611d6f565b92915050565b600060208284031215611db157611db0611d39565b5b6000611dbf84828501611d86565b91505092915050565b60008115159050919050565b611ddd81611dc8565b82525050565b6000602082019050611df86000830184611dd4565b92915050565b600081519050919050565b600082825260208201905092915050565b60005b83811015611e38578082015181840152602081019050611e1d565b60008484015250505050565b6000601f19601f8301169050919050565b6000611e6082611dfe565b611e6a8185611e09565b9350611e7a818560208601611e1a565b611e8381611e44565b840191505092915050565b60006020820190508181036000830152611ea88184611e55565b905092915050565b6000819050919050565b611ec381611eb0565b8114611ece57600080fd5b50565b600081359050611ee081611eba565b92915050565b600060208284031215611efc57611efb611d39565b5b6000611f0a84828501611ed1565b91505092915050565b600073ffffffffffffffffffffffffffffffffffffffff82169050919050565b6000611f3e82611f13565b9050919050565b611f4e81611f33565b82525050565b6000602082019050611f696000830184611f45565b92915050565b611f7881611f33565b8114611f8357600080fd5b50565b600081359050611f9581611f6f565b92915050565b60008060408385031215611fb257611fb1611d39565b5b6000611fc085828601611f86565b9250506020611fd185828601611ed1565b9150509250929050565b600080600060608486031215611ff457611ff3611d39565b5b600061200286828701611f86565b935050602061201386828701611f86565b925050604061202486828701611ed1565b9150509250925092565b61203781611eb0565b82525050565b6000602082019050612052600083018461202e565b92915050565b60006020828403121561206e5761206d611d39565b5b600061207c84828501611f86565b91505092915050565b61208e81611dc8565b811461209957600080fd5b50565b6000813590506120ab81612085565b92915050565b600080604083850312156120c8576120c7611d39565b5b60006120d685828601611f86565b92505060206120e78582860161209c565b9150509250929050565b600080fd5b600080fd5b7f4e487b7100000000000000000000000000000000000000000000000000000000600052604160045260246000fd5b61213382611e44565b810181811067ffffffffffffffff82111715612152576121516120fb565b5b80604052505050565b6000612165611d2f565b9050612171828261212a565b919050565b600067ffffffffffffffff821115612191576121906120fb565b5b61219a82611e44565b9050602081019050919050565b82818337600083830152505050565b60006121c96121c484612176565b61215b565b9050828152602081018484840111156121e5576121e46120f6565b5b6121f08482856121a7565b509392505050565b600082601f83011261220d5761220c6120f1565b5b813561221d8482602086016121b6565b91505092915050565b600080600080608085870312156122405761223f611d39565b5b600061224e87828801611f86565b945050602061225f87828801611f86565b935050604061227087828801611ed1565b925050606085013567ffffffffffffffff81111561229157612290611d3e565b5b61229d878288016121f8565b91505092959194509250565b600067ffffffffffffffff8211156122c4576122c36120fb565b5b6122cd82611e44565b9050602081019050919050565b60006122ed6122e8846122a9565b61215b565b905082815260208101848484011115612309576123086120f6565b5b6123148482856121a7565b509392505050565b600082601f830112612331576123306120f1565b5b81356123418482602086016122da565b91505092915050565b60008060006060848603121561236357612362611d39565b5b600061237186828701611f86565b935050602084013567ffffffffffffffff81111561239257612391611d3e565b5b61239e8682870161231c565b92505060406123af86828701611ed1565b9150509250925092565b600080604083850312156123d0576123cf611d39565b5b60006123de85828601611f86565b92505060206123ef85828601611f86565b9150509250929050565b7f4e487b7100000000000000000000000000000000000000000000000000000000600052602260045260246000fd5b6000600282049050600182168061244057607f821691505b602082108103612453576124526123f9565b5b50919050565b600060608201905061246e6000830186611f45565b61247b602083018561202e565b6124886040830184611f45565b949350505050565b60008151905061249f81611eba565b92915050565b6000602082840312156124bb576124ba611d39565b5b60006124c984828501612490565b91505092915050565b7f496e73756666696369656e742062616c616e6365000000000000000000000000600082015250565b6000612508601483611e09565b9150612513826124d2565b602082019050919050565b60006020820190508181036000830152612537816124fb565b9050919050565b60006060820190506125536000830186611f45565b6125606020830185611f45565b61256d604083018461202e565b949350505050565b60008151905061258481612085565b92915050565b6000602082840312156125a05761259f611d39565b5b60006125ae84828501612575565b91505092915050565b7f5472616e73666572206661696c65640000000000000000000000000000000000600082015250565b60006125ed600f83611e09565b91506125f8826125b7565b602082019050919050565b6000602082019050818103600083015261261c816125e0565b9050919050565b7f4e487b7100000000000000000000000000000000000000000000000000000000600052601160045260246000fd5b600061265d82611eb0565b91507fffffffffffffffffffffffffffffffffffffffffffffffffffffffffffffffff820361268f5761268e612623565b5b600182019050919050565b60006126a582611eb0565b91506126b083611eb0565b92508282019050808211156126c8576126c7612623565b5b92915050565b600081905092915050565b60006126e482611dfe565b6126ee81856126ce565b93506126fe818560208601611e1a565b80840191505092915050565b600061271682856126d9565b915061272282846126d9565b91508190509392505050565b7f4e6f6e6578697374656e7420746f6b656e000000000000000000000000000000600082015250565b6000612764601183611e09565b915061276f8261272e565b602082019050919050565b6000602082019050818103600083015261279381612757565b9050919050565b600081519050919050565b600082825260208201905092915050565b60006127c18261279a565b6127cb81856127a5565b93506127db818560208601611e1a565b6127e481611e44565b840191505092915050565b60006080820190506128046000830187611f45565b6128116020830186611f45565b61281e604083018561202e565b818103606083015261283081846127b6565b905095945050505050565b60008151905061284a81611d6f565b92915050565b60006020828403121561286657612865611d39565b5b60006128748482850161283b565b91505092915050565b60008190508160005260206000209050919050565b60006020601f8301049050919050565b600082821b905092915050565b6000600883026128df7fffffffffffffffffffffffffffffffffffffffffffffffffffffffffffffffff826128a2565b6128e986836128a2565b95508019841693508086168417925050509392505050565b6000819050919050565b600061292661292161291c84611eb0565b612901565b611eb0565b9050919050565b6000819050919050565b6129408361290b565b61295461294c8261292d565b8484546128af565b825550505050565b600090565b61296961295c565b612974818484612937565b505050565b5b818110156129985761298d600082612961565b60018101905061297a565b5050565b601f8211156129dd576129ae8161287d565b6129b784612892565b810160208510156129c6578190505b6129da6129d285612892565b830182612979565b50505b505050565b600082821c905092915050565b6000612a00600019846008026129e2565b1980831691505092915050565b6000612a1983836129ef565b9150826002028217905092915050565b612a3282611dfe565b67ffffffffffffffff811115612a4b57612a4a6120fb565b5b612a558254612428565b612a6082828561299c565b600060209050601f831160018114612a935760008415612a81578287015190505b612a8b8582612a0d565b865550612af3565b601f198416612aa18661287d565b60005b82811015612ac957848901518255600182019150602085019450602081019050612aa4565b86831015612ae65784890151612ae2601f8916826129ef565b8355505b6001600288020188555050505b505050505050565b6000604082019050612b106000830185611f45565b612b1d602083018461202e565b9392505050565b7f4e487b7100000000000000000000000000000000000000000000000000000000600052601260045260246000fdfea26469706673582212200690cdcd9d876e3046352629ff98af5373fafbc4783f156e1c00702e65b1769164736f6c634300081c0033",
  "linkReferences": {},
  "deployedLinkReferences": {}
}